{
  "contractName": "Voting",
  "abi": [
    {
      "anonymous": false,
      "inputs": [
        {
          "indexed": false,
          "name": "candidateID",
          "type": "uint256"
        }
      ],
      "name": "AddedCandidate",
      "type": "event"
    },
    {
      "constant": false,
      "inputs": [
        {
          "name": "name",
          "type": "bytes32"
        },
        {
          "name": "party",
          "type": "bytes32"
        }
      ],
      "name": "addCandidate",
      "outputs": [],
      "payable": false,
      "stateMutability": "nonpayable",
      "type": "function"
    },
    {
      "constant": false,
      "inputs": [
        {
          "name": "uid",
          "type": "bytes32"
        },
        {
          "name": "candidateID",
          "type": "uint256"
        }
      ],
      "name": "vote",
      "outputs": [],
      "payable": false,
      "stateMutability": "nonpayable",
      "type": "function"
    },
    {
      "constant": true,
      "inputs": [
        {
          "name": "candidateID",
          "type": "uint256"
        }
      ],
      "name": "totalVotes",
      "outputs": [
        {
          "name": "",
          "type": "uint256"
        }
      ],
      "payable": false,
      "stateMutability": "view",
      "type": "function"
    },
    {
      "constant": true,
      "inputs": [],
      "name": "getNumOfCandidates",
      "outputs": [
        {
          "name": "",
          "type": "uint256"
        }
      ],
      "payable": false,
      "stateMutability": "view",
      "type": "function"
    },
    {
      "constant": true,
      "inputs": [],
      "name": "getNumOfVoters",
      "outputs": [
        {
          "name": "",
          "type": "uint256"
        }
      ],
      "payable": false,
      "stateMutability": "view",
      "type": "function"
    },
    {
      "constant": true,
      "inputs": [
        {
          "name": "candidateID",
          "type": "uint256"
        }
      ],
      "name": "getCandidate",
      "outputs": [
        {
          "name": "",
          "type": "uint256"
        },
        {
          "name": "",
          "type": "bytes32"
        },
        {
          "name": "",
          "type": "bytes32"
        }
      ],
      "payable": false,
      "stateMutability": "view",
      "type": "function"
    }
  ],
  "bytecode": "0x608060405234801561001057600080fd5b50610421806100206000396000f3fe608060405260043610610078576000357c0100000000000000000000000000000000000000000000000000000000900463ffffffff16806319e6e1581461007d57806335b8e820146100cc57806365fc783c146101295780639ef1204c14610154578063a1adbb2514610199578063e8685ba1146101de575b600080fd5b34801561008957600080fd5b506100b6600480360360208110156100a057600080fd5b8101908080359060200190929190505050610209565b6040518082815260200191505060405180910390f35b3480156100d857600080fd5b50610105600480360360208110156100ef57600080fd5b810190808035906020019092919050505061025e565b60405180848152602001838152602001828152602001935050505060405180910390f35b34801561013557600080fd5b5061013e61029f565b6040518082815260200191505060405180910390f35b34801561016057600080fd5b506101976004803603604081101561017757600080fd5b8101908080359060200190929190803590602001909291905050506102a9565b005b3480156101a557600080fd5b506101dc600480360360408110156101bc57600080fd5b810190808035906020019092919080359060200190929190505050610333565b005b3480156101ea57600080fd5b506101f36103ec565b6040518082815260200191505060405180910390f35b6000806000905060008090505b6001548110156102545783600360008381526020019081526020016000206001015414156102475781806001019250505b8080600101915050610216565b5080915050919050565b600080600083600260008681526020019081526020016000206000015460026000878152602001908152602001600020600101549250925092509193909250565b6000600154905090565b600115156002600083815260200190815260200160002060020160009054906101000a900460ff161515141561032f57600060016000815480929190600101919050559050604080519081016040528084815260200183815250600360008381526020019081526020016000206000820151816000015560208201518160010155905050505b5050565b60008060008154809291906001019190505590506060604051908101604052808481526020018381526020016001151581525060026000838152602001908152602001600020600082015181600001556020820151816001015560408201518160020160006101000a81548160ff0219169083151502179055509050507fec542c373a064661ffef02d633752debf28f3e6c9f253680822d9ccf8b47aec6816040518082815260200191505060405180910390a1505050565b6000805490509056fea165627a7a7230582094a6447243f293e913e213d64da25a3e6861bd6d20291339845c93863d0cec8f0029",
  "source": "pragma solidity ^0.5.0;\r\n// written for Solidity version 0.4.18 and above that doesnt break functionality\r\n\r\ncontract Voting {\r\n    // an event that is called whenever a Candidate is added so the frontend could\r\n    // appropriately display the candidate with the right element id (it is used\r\n    // to vote for the candidate, since it is one of arguments for the function \"vote\")\r\n    event AddedCandidate(uint candidateID);\r\n\r\n    // describes a Voter, which has an id and the ID of the candidate they voted for\r\n    struct Voter {\r\n        bytes32 uid; // bytes32 type are basically strings\r\n        uint candidateIDVote;\r\n    }\r\n    // describes a Candidate\r\n    struct Candidate {\r\n        bytes32 name;\r\n        bytes32 party; \r\n        // \"bool doesExist\" is to check if this Struct exists\r\n        // This is so we can keep track of the candidates \r\n        bool doesExist; \r\n    }\r\n\r\n    // These state variables are used keep track of the number of Candidates/Voters \r\n    // and used to as a way to index them     \r\n    uint numCandidates; // declares a state variable - number Of Candidates\r\n    uint numVoters;\r\n\r\n    \r\n    // Think of these as a hash table, with the key as a uint and value of \r\n    // the struct Candidate/Voter. These mappings will be used in the majority\r\n    // of our transactions/calls\r\n    // These mappings will hold all the candidates and Voters respectively\r\n    mapping (uint => Candidate) candidates;\r\n    mapping (uint => Voter) voters;\r\n    \r\n    /* * * * * * * * * * * * * * * * * * * * * * * * * * * * * * * *\r\n     *  These functions perform transactions, editing the mappings *\r\n     * * * * * * * * * * * * * * * * * * * * * * * * * * * * * * * */\r\n\r\n    function addCandidate(bytes32 name, bytes32 party) public {\r\n        // candidateID is the return variable\r\n        uint candidateID = numCandidates++;\r\n        // Create new Candidate Struct with name and saves it to storage.\r\n        candidates[candidateID] = Candidate(name,party,true);\r\n        emit AddedCandidate(candidateID);\r\n    }\r\n\r\n    function vote(bytes32 uid, uint candidateID) public {\r\n        // checks if the struct exists for that candidate\r\n        if (candidates[candidateID].doesExist == true) {\r\n            uint voterID = numVoters++; //voterID is the return variable\r\n            voters[voterID] = Voter(uid,candidateID);\r\n        }\r\n    }\r\n\r\n    /* * * * * * * * * * * * * * * * * * * * * * * * * * \r\n     *  Getter Functions, marked by the key word \"view\" *\r\n     * * * * * * * * * * * * * * * * * * * * * * * * * */\r\n    \r\n\r\n    // finds the total amount of votes for a specific candidate by looping\r\n    // through voters \r\n    function totalVotes(uint candidateID) view public returns (uint) {\r\n        uint numOfVotes = 0; // we will return this\r\n        for (uint i = 0; i < numVoters; i++) {\r\n            // if the voter votes for this specific candidate, we increment the number\r\n            if (voters[i].candidateIDVote == candidateID) {\r\n                numOfVotes++;\r\n            }\r\n        }\r\n        return numOfVotes; \r\n    }\r\n\r\n    function getNumOfCandidates() public view returns(uint) {\r\n        return numCandidates;\r\n    }\r\n\r\n    function getNumOfVoters() public view returns(uint) {\r\n        return numVoters;\r\n    }\r\n    // returns candidate information, including its ID, name, and party\r\n    function getCandidate(uint candidateID) public view returns (uint,bytes32, bytes32) {\r\n        return (candidateID,candidates[candidateID].name,candidates[candidateID].party);\r\n    }\r\n}",
  "sourcePath": "C:/workspace/etherium/e-voting_demo/contracts/Voting.sol",
  "compiler": {
    "name": "solc",
    "version": "0.5.0+commit.1d4f565a.Emscripten.clang"
  },
  "schemaVersion": "3.0.6",
  "updatedAt": "2019-04-21T00:44:52.555Z",
  "devdoc": {
    "methods": {}
  },
  "userdoc": {
    "methods": {}
  }
}